:020000040800F2
:10000000380E0020611900080B0200080D020008DC
:100010001102000815020008190200080000000083
:100020000000000000000000000000001D020008A9
:100030001F0200080000000021020008230200083F
:100040007B1900087B1900087B1900087B19000840
:100050007B1900087B1900087B1900087B19000830
:100060007B1900087B1900087B1900087B19000820
:100070007B1900087B1900087B1900087B19000810
:100080007B1900087B1900087B1900087B19000800
:100090007B1900087B1900087B190008511500081E
:1000A0007B1900087B1900087B1900087B190008E0
:1000B0007B190008AF0A00087B1900087B190008AB
:1000C0007B1900087B1900087B1900087B190008C0
:1000D0007B190008F51700086B1800087B19000849
:1000E0007B1900087B1900087B1900087B190008A0
:1000F0007B1900087B1900087B1900087B19000890
:100100007B1900087B1900087B1900087B1900087F
:100110007B1900087B1900087B1900087B1900086F
:100120007B1900087B1900087B1900087B1900085F
:1001300000F002F800F03AF80AA090E8000C8244BF
:100140008344AAF10107DA4501D100F02FF8AFF29C
:10015000090EBAE80F0013F0010F18BFFB1A43F0A5
:1001600001031847C43F0000E43F0000103A24BFD9
:1001700078C878C1FAD8520724BF30C830C144BF0C
:1001800004680C607047000000230024002500264E
:10019000103A28BF78C1FBD8520728BF30C148BFEA
:1001A0000B6070471FB51FBD10B510BD03F0D6FC26
:1001B0001146FFF7F7FF00F008F803F0F4FC03B472
:1001C000FFF7F2FF03BC01F051FA01F0E5F94FF43B
:1001D000A06001F0E5FB41F61F41632000F03AFC0E
:1001E0004FF41651012001F0ECFA4FF416510220A1
:1001F00001F0E7FA00F090F940F2E241052001F049
:10020000B5F901E000F038FBFCE7704700BFFEE7FE
:1002100000BFFEE700BFFEE700BFFEE77047704784
:10022000704770470CB50020019000906C48006842
:1002300040F480306A49086000BF6948006800F4F3
:10024000003000900198401C0190009818B9019866
:10025000B0F5A06FF1D16248006800F4003010B131
:100260000120009001E0002000900098012843D177
:100270005C48006840F010005A4908600846006871
:1002800020F0030008600846006840F002000860A3
:1002900053484068524948600846406848600846EC
:1002A000406840F4806048600846406820F47C1054
:1002B00048600846406840F4E81048600846006816
:1002C00040F08070086000BF4548006800F0007092
:1002D0000028F9D04248406820F0030040494860B7
:1002E0000846406840F00200486000BF3C48406853
:1002F00000F00C000828F9D10CBD10B5FFF792FFF3
:1003000010BD10B53648006840F00100344908605F
:10031000084640683449084031494860084600684A
:10032000324908402E4908600846006820F48020C1
:1003300008600846406820F4FE0048604FF41F0043
:100340008860FFF7DAFF4FF000602949086010BDB0
:1003500010B5002100200022214B5B6803F00C0146
:1003600021B1042906D0082928D107E0214B224CCD
:10037000236027E01F4B204C236023E0184B5B6871
:1003800003F47010164B5B6803F48032022303EB16
:10039000904022B9194B4343174C23600DE0104B9A
:1003A0005B6803F4003323B1144B4343124C2360C6
:1003B00003E0104B4343104C236003E00D4B0E4C05
:1003C000236000BF00BF064B5B68C3F303130C4CF4
:1003D000E15C094B1B68CB40074C236010BD00005B
:1003E00000100240002002400000FFF8FFFFF6FE70
:1003F00008ED00E000127A000000002000093D0036
:100400000400002030B503460C460020214603E0DE
:100410005D5C0544A8B2491C9142F9DD30BD10B5C0
:1004200088B00222F84901A803F046FB0222F749EE
:100430000DF1060003F040FB02208DF808000422B5
:10044000F3490DF1090003F037FB0322F1490DF1E7
:100450000D0003F031FB0322EF4904A803F02CFB4D
:100460000322EE490DF1130003F026FB11220221B5
:1004700001A8FFF7C7FF044620128DF81C00E0B268
:100480008DF81D00022207A9881F03F015FB022228
:10049000E34906A803F010FB162201A9022001F08F
:1004A0001BFA1622002101A803F013FB08B010BDAF
:1004B00008B501210C2001F0FDFD2020ADF8000061
:1004C00004208DF803006946D64801F037FB02206E
:1004D000ADF8000010208DF8030002208DF8020016
:1004E0006946D14801F02AFB0221CF4801F0D3FB35
:1004F0004FF40070ADF8000010208DF803000220CA
:100500008DF802006946C84801F018FB4FF40071ED
:10051000C54801F0C0FB08BD10B5FFF7C9FF402179
:10052000C24801F0D5FF4021C14801F0D1FF0422AB
:10053000B749C04800F00CFB00F0D1FC10BD10B56D
:1005400086B00222B04901A803F0B6FA0222BA49E5
:100550000DF1060003F0B0FA01208DF80800042226
:10056000AB490DF1090003F0A7FA0822022101A806
:10057000FFF748FF044620128DF81400E0B28DF812
:100580001500022205A9C81F03F096FA0222A44909
:100590000DF10F0003F090FA0D2201A9022001F0E5
:1005A0009BF906B010BD704770477CB50222964992
:1005B000A24803F081FA0222A149A048801C03F05E
:1005C0007BFA04209D490871042291499B48401DF3
:1005D00003F072FA03229B499848093003F06CFA41
:1005E0000322994995480C3003F066FA3220012322
:1005F000002296490090081F00F0C7FE06464EBB39
:1006000092491439086903F0FDFB00F15E050320EF
:100610008E4914390870280A48708D700420C870FB
:10062000486903F0EFFB010A88481438017101465C
:10063000486903F0E7FBC1B28448143841710322D2
:100640000146834803F038FA032280491139814872
:1006500003F032FA03227E4978480F3003F02CFA77
:1006600003227C497548123003F026FA1422022135
:100670007248FFF7C7FE044620128DF80400E0B26E
:100680008DF80500022201A96C48153003F014FA18
:10069000022263496948173003F00EFA19226749AC
:1006A000022001F019F97CBD10B56B4800880128C3
:1006B00001D1FFF77AFF10BD2DE9F84304460D463E
:1006C0006648407C6549097C00EB012087B263489D
:1006D000C07C6249897C00EB01201FFA80F8A7EBFF
:1006E00008000A2190FBF1F086B230128DF800006C
:1006F000F0B28DF801002A462146584803F0DCF993
:10070000022256490C314F48401C03F0D5F9022211
:1007100069464D48401C03F0CFF9BDE8F8832DE948
:10072000F04399B081460E461446621F02213046BE
:10073000FFF768FE074638128DF86000F8B28DF8B2
:100740006100211F8819022218A903F0CCF90028A2
:1007500058D1B9F1020F56D13079052851D1A4F101
:10076000150206F1110101A803F0A6F9002518E011
:1007700001A8405D812811D101A9A81C085C0A28A4
:1007800003D101203649086007E001A9A81C085CD4
:100790000B2802D100203249086000E000BF00BFF2
:1007A000ED1CA4F11500032190FBF1F0A842DFDC61
:1007B000781C1FFA80F84FEA28208DF85C0008F0BA
:1007C000FF008DF85D002246314607A803F074F95A
:1007D00006208DF82000211F07AA8818022217A9D9
:1007E00003F06AF9224607A9022001F075F81822E1
:1007F000002101A803F06DF92246002107A803F0AB
:1008000068F936E02FE02DE01400002016000020EB
:1008100018000020200000202300002026000020D7
:100820002900002000080140000C01400038014070
:100830000044004000F40008380000208000002040
:100840003A0000203C0000203F000020D0000020A3
:1008500042000020450000205800002099000020A0
:100860008481214205E0002404220021304603F067
:1008700030F919B0BDE8F08330B5C9B04D480088F3
:1008800000F40040D0B14B48047822464A4909A8F8
:1008900003F012F9214609A8FFF70EFF0020454991
:1008A00008804FF480720021434803F012F94FF49E
:1008B0008072002109A803F00CF978E03F48008815
:1008C00000F40040002872D03C48047822463C499D
:1008D00009A803F0F1F804223A490DF1290003F0C8
:1008E00002F950B90222384909A803F0FCF820B9EE
:1008F000224609A90220FFF712FF0D22334909A859
:1009000003F0F1F820B9FFF78AFD01203049088093
:100910000D2C01D1012000E000209DF82810FD29B8
:1009200001D1012100E00021084078B3224609A945
:1009300005A803F0C1F8224609A901A803F0BCF8F4
:1009400004220DF119011F4803F0B6F804221D49D5
:10095000204800F00EF9FE208DF808000822022140
:1009600001A8FFF74FFD054628128DF80000E8B2F8
:100970008DF80100022269460DF10D0003F09CF88C
:100980000D2201A9022000F0A7FF00BF00200B49A3
:10099000088000244FF480720021094803F099F880
:1009A0004FF48072002109A803F093F800BF49B00A
:1009B00030BD000064000020D40400206600002048
:1009C000D405002018000020140000202B00002077
:1009D0005800002000F4000808B50121082001F0AB
:1009E00069FB4FF48070ADF8000028208DF80300FB
:1009F0006946164801F0A2F808BD10B5044614B1C6
:100A00000120134908701248007898B14FF48071A2
:100A10000E4801F026F968B90A2000F0FAFD00201E
:100A20000B4908704FF48071084801F01AF950B969
:100A3000012010BD4FF48071044801F012F9012823
:100A400001D1034908700020F3E70000000C0140C9
:100A50004C0000207FB505460C460121022001F024
:100A600036FBADF80850ADF804400020ADF80A00A0
:100A7000ADF8060001A9264802F036F90122114618
:100A8000234802F0A8FC1D208DF8000000208DF8FE
:100A9000010003208DF8020001208DF80300684654
:100AA00000F083FF01211A4802F07AFC7FBD10B5E7
:100AB0000121174802F03DFF48B316480088401C4A
:100AC0001449088014480088401C134908801148C4
:100AD000008840F6B831884204D100200D490880D2
:100AE000FFF7E2FD0C48008864280CD100200A4979
:100AF00008802021094801F0B4F810B1002008490D
:100B0000088000F045FD0121014802F023FF10BDDF
:100B1000000400404E000020520000200008014068
:100B2000580000200146088870472DE9F04105462D
:100B30000E461746002407E036F81410284601F048
:100B400088FEAD1C601C84B2BC42F5DBBDE8F081C0
:100B500030B503460C461546002207E01846FFF75D
:100B6000E1FF24F812009B1C501C82B2AA42F5DB64
:100B700030BD2DE9F05F80468A461746B8F1006F18
:100B800002D33748804501D3BDE8F09F01F019FD3D
:100B9000A8F1006B4FEA9B25CBF34809C9F5007417
:100BA000A74200DC3C464DE04FF0006101EB8520A0
:100BB0008A142C49FFF7CCFF00260BE009EB060056
:100BC000284931F810004FF6FF71884200D003E049
:100BD000701C86B2A642F1DB00BFA6421BDA4FF0C2
:100BE000006101EB852001F031FD002608E03AF8B4
:100BF000160006EB09011B4A22F81100701C86B290
:100C0000A642F4DB4FF0006101EB85208A14154900
:100C1000FFF78BFF04E0224651464046FFF785FF71
:100C2000A74200D10FE06D1C4FF000090AEB440A07
:100C3000A044381B87B2B7F5007F02DD4FF4007483
:100C400000E03C46B0E700BF01F0C7FC00BF9BE7F7
:100C500013B50446012201A92046FFF78AFF1CBDF7
:100C600000000108D400002008B58020ADF8000085
:100C700010208DF8030001208DF80200694691488C
:100C800000F05CFF08BD08B58020ADF8000004202E
:100C90008DF8030069468B4800F050FF08BD08B589
:100CA0004020ADF8000010208DF8030001208DF8E1
:100CB00002006946834800F041FF08BD08B54020A6
:100CC000ADF8000004208DF8030069467D4800F06F
:100CD00035FF08BD10B580217A4800F0DCFF10BD5B
:100CE00010B58021774800F0D8FF10BD10B5402125
:100CF000744800F0D0FF10BD10B54021714800F0DD
:100D0000CCFF10BD10B580216E4800F0AAFF10BDC9
:100D100010B540216B4800F0A4FF10BD10B5FFF7DF
:100D2000A3FFFFF7BCFFFFF7D5FFFFF7DFFF10BD05
:100D300010B5FFF799FFFFF7CDFFFFF7D7FF0520AD
:100D400000F043FCFFF7CCFF052000F03EFC10BD97
:100D500010B5FFF7CBFFFFF7C3FF052000F035FC10
:100D6000FFF7B8FF052000F030FC10BD70B5044659
:100D70000026FFF7C1FFFFF777FF002518E0FFF718
:100D8000BBFF052000F021FC04F0800010B1FFF74C
:100D9000A1FF01E0FFF7A4FF052000F016FCFFF71C
:100DA000A5FF052000F011FC6006040E681CC5B20A
:100DB000082DE4DBFFF7A0FF052000F006FCFFF79D
:100DC00062FF052000F001FCFFF790FF052000F016
:100DD000FCFBFFF797FF00B10126FFF78DFF052011
:100DE00000F0F3FB304670BD70B50446002509E005
:100DF0002000A4F10101CCB201D1042070BD642017
:100E000000F0E3FBFFF784FF0028F1D02846F5E768
:100E10002DE9F04705460E4617464FF0000900241D
:100E2000FFF76AFFFFF72FFFA0461BE06006040EE6
:100E3000FFF75CFF052000F0C8FB3846FFF7D4FF42
:100E40008146052000F0C1FBFFF75CFF08B144F0CC
:100E50000104FFF751FF052000F0B7FB08F1010086
:100E600000F0FF08B8F1080FE0DB2C70FFF7FCFE84
:100E7000052000F0AAFB16B9FFF732FF01E0FFF7EB
:100E800029FF052000F0A1FBFFF730FF052000F04F
:100E90009CFBFFF731FFFFF71DFF052000F095FBDE
:100EA0004846BDE8F08710B5FFF742FF0020FFF786
:100EB0005DFF04461CB90620FFF758FF0446204694
:100EC00010BD0000000801404106090EFE4A1170E5
:100ED0001146097841F00101FC4A1170704708B5CC
:100EE0000121042001F0E6F8C020ADF80000102038
:100EF0008DF8030001208DF802006946F44800F0E7
:100F00001DFEC021F24800F0C6FEFFF707FF442097
:100F1000FFF7DAFF08BD30B502460B46FF2000217F
:100F200013E0555C684008240BE000F0800525B113
:100F3000312585EA4005E8B201E04506280E651E28
:100F4000ECB2002CF1DC4D1CE9B29942E9DB30BD7A
:100F5000F0B505460E46144631462846FFF7DBFF3E
:100F60000746A74201D00220F0BD0020FCE72DE992
:100F7000FC4105460E4617463A46002101A8FFF7F8
:100F800047FF044634B9002211460DF10500FFF772
:100F90003FFF04462CB9002231466846FFF738FF70
:100FA000044634B99DF80020022101A8FFF7D0FFC4
:100FB00004469DF805009DF8041040EA01202880B1
:100FC0002046BDE8FC81F8B5044620128DF80000EB
:100FD000E0B28DF8010002216846FFF79CFF06464B
:100FE0009DF80000FFF7C2FE054625B99DF80100F7
:100FF000FFF7BCFE05461DB93046FFF7B7FE0546B4
:101000002846F8BD10B5FFF7A3FE10BD10B5FFF7D9
:101010008FFEAE480078FFF7A9FE0446204610BDBB
:1010200070B504462012FFF7A1FE0546E0B2FFF7B7
:101030009DFE0543284670BD10B5FFF779FEA24816
:101040000078FFF793FE0446204610BD38B50546EC
:10105000FFF7F2FF04464FF45E50FFF7E1FF044351
:1010600014B9FFF7D3FF04462CB964220021684667
:10107000FFF77DFF044634B9002201210DF1020083
:10108000FFF775FF0446FFF7BDFF34B9BDF8020056
:10109000BDF8001040EA01402860204638BD70B518
:1010A0000546FFF7C9FF044624B94FF22D30FFF77C
:1010B000B7FF044614B9FFF7A9FF04462CB9002274
:1010C00001212846FFF753FF0446FFF79BFF204608
:1010D00070BD10B5FFF7B0FF044624B943F24100DC
:1010E000FFF79EFF0446FFF78DFF204610BD70B549
:1010F0000446204602F0C2FE0646764902F0D2FEC1
:101100000546754902F0BCFD70BD2DE9F04104466D
:10111000204602F0B3FE0746704902F0C3FE0646C1
:101120006D4902F0ADFD05466D4902F087FFBDE84F
:10113000F0817CB505460E46FFF77EFF044624B9D4
:101140004FF46040FFF76CFF044614B9FFF75EFFF1
:1011500004462CB90022114601A8FFF708FF0446F7
:101160002CB9002201216846FFF701FF04464CB963
:10117000BDF80400FFF7C9FF2860BDF80000FFF7C5
:10118000B6FF3060FFF73EFF20467CBD10B5FFF78D
:1011900053FF044624B943F26D00FFF741FF0446B4
:1011A000FFF730FF204610BD10B5FFF745FF04469E
:1011B00024B943F26600FFF733FF0446FFF722FF2E
:1011C000204610BD10B5FFF737FF044643F2A200DA
:1011D000FFF726FF0443FFF715FF1CB94CF2503010
:1011E00000F0F3F9204610BD2DE9F04104463C49DA
:1011F000204602F0E3FC0746384902F041FD06466E
:10120000354902F04FFE054602F018FE80B2BDE8F7
:10121000F08170B504462F49204602F031FD0646A4
:101220002D4902F03FFE054602F008FE80B270BD77
:101230002DE9FC4106460F4690461D46FFF7FCFE91
:101240000446ECB9B8F1000F11D0B8F1010F08D085
:10125000B8F1020F11D142F21640FFF7E1FE044649
:101260000DE042F20B40FFF7DBFE044607E04FF4CF
:101270001050FFF7D5FE044601E0802400BF00BFF8
:101280008CB908E0FFF7C2FE044604B908E04FF449
:101290007A7000F09AF92800A5F10101CDB2F1D1E0
:1012A00000BF05B904245CB90022114601A8FFF76C
:1012B0005EFE0443002201216846FFF758FE044306
:1012C000FFF7A0FEC4B90DE05A0000205B0000202B
:1012D000000801400000C84200FF7F4700002F4384
:1012E00000003442BDF80400FFF70FFF3060BDF886
:1012F0000000FFF7FCFE38602046BDE8FC812DE9C8
:10130000FC4105460E4617469846FFF795FE0446F3
:10131000CCB97FB1012F07D0022F11D142F6104076
:10132000FFF77EFE04460DE042F60D40FFF778FE23
:10133000044607E042F60640FFF772FE044601E06D
:10134000802400BF00BF14B9FFF760FE04462CB92B
:101350004246002101A8FFF70AFE04462CB90022EC
:1013600001216846FFF703FE0446FFF74BFE4CB928
:10137000BDF80400FFF7C9FE2860BDF80000FFF7C4
:10138000B6FE30602046BDE8FC812DE9F0470646F8
:101390000F4690461D46DDF8209015B1012D10D165
:1013A00007E04B46424639463046FFF7A8FF044661
:1013B00009E04B46424639463046FFF739FF0446BE
:1013C00001E0802400BF00BF2046BDE8F08770B573
:1013D00006460D46FFF730FE0446002C72D1002E63
:1013E00057D0012E2BD0022E7FD1052D22D2DFE83F
:1013F00005F003090F151B0042F22F00FFF710FE46
:1014000004431AE042F22D10FFF70AFE044314E0F1
:1014100042F22B20FFF704FE04430EE042F2293093
:10142000FFF7FEFD044308E042F22A70FFF7F8FDE3
:10143000044302E044F0800400BF00BF58E0052DE3
:1014400022D2DFE805F003090F151B0042F2240049
:10145000FFF7E6FD04431AE042F22610FFF7E0FD35
:10146000044314E042F22020FFF7DAFD04430EE0CB
:1014700042F22230FFF7D4FD044308E042F221702B
:10148000FFF7CEFD044302E044F0800400BF00BF3C
:101490002EE0052D24D2DFE805F003090F171D000B
:1014A00042F23200FFF7BCFD04431CE042F2301070
:1014B000FFF7B6FD044316E042F23620FFF7B0FD19
:1014C000044310E015E010E042F23430FFF7A8FDCD
:1014D000044308E042F23770FFF7A2FD044302E044
:1014E00044F0800400BF00BF02E044F0800400BF6D
:1014F00000BFFFF787FD204670BD00000EB5FFF767
:101500006BFA0121084600F0D5FD0821012000F00A
:101510002BFC4FF48070019000208DF808000C2007
:101520008DF8090001208DF80A0001A802F044FAA4
:1015300017208DF8000002208DF8010000208DF8A2
:10154000020001208DF80300684600F02EFA0EBD5F
:1015500010B54FF48071044800F083FB4FF48070A5
:1015600002F0A1FA10BD0000000C014070B5054664
:101570000C4645F2555002F0F1F9284602F0F1F917
:10158000204602F0F1F902F0F2F902F0F5F970BD2F
:1015900010B502F0ECF910BD10B56FF0040000F0CA
:1015A0004EFA2E4800682E49B0FBF1F02D49087024
:1015B0000846007800EB4001C1EBC0104FF6FF7108
:1015C00001EAC0002849088010BD0146254A12786A
:1015D0004A434FF0E0235A6100229A611A46126989
:1015E00042F001021A6100BF4FF0E022106900F0E2
:1015F00001021AB100F48032002AF5D04FF0E02247
:10160000126922F001024FF0E0231A6100229A6170
:1016100070470146144A12884A434FF0E0235A614A
:1016200000229A611A46126942F001021A6100BF53
:101630004FF0E022106900F001021AB100F480328C
:10164000002AF5D04FF0E022126922F001024FF09B
:10165000E0231A6100229A61704700000000002018
:1016600000127A005C0000205E00002000BF70477E
:1016700000BFB34A128802F04002002AF9D0C2B279
:10168000AF4B1B1D1A80704710B586B00446012170
:10169000480400F01CFD0121042000F00BFD042093
:1016A000ADF8140003208DF8160018208DF81700EF
:1016B00005A9A44800F042FA0820ADF8140004205F
:1016C0008DF8170005A99F4800F038FA26208DF8FC
:1016D000000002208DF8010001208DF802008DF835
:1016E0000300684600F061F901940020ADF808009D
:1016F000ADF80A00ADF80C00ADF810000C20ADF804
:101700000E0001A9904800F07CFD012240F2255115
:101710008D4800F00EFE01218B4800F0FEFD06B062
:1017200010BD10B586B00446012144F2040000F05B
:10173000C1FC834800F022FD4FF40070ADF81400A6
:1017400003208DF8160018208DF8170005A97D4894
:1017500000F0F4F94FF48060ADF8140004208DF827
:10176000170005A9774800F0E9F925208DF8000059
:1017700002208DF8010000208DF8020001208DF874
:101780000300684600F011F901940020ADF808004C
:10179000ADF80A00ADF80C00ADF810000C20ADF863
:1017A0000E0001A9664800F02CFD012240F22551EF
:1017B000634800F0BEFD0121614800F0AEFD06B0B7
:1017C00010BD70B504460D469CB1062C0FD2DFE863
:1017D00004F00E03070B0C0D2846FFF7A2FF07E0ED
:1017E0002846FFF751FF03E002E001E000E000BF00
:1017F00000BF70BD10B540F22551514800F07EFE8B
:1018000090B34F4800F0FAFDC4B25048008800F48D
:10181000004020BB4E480078422806D14B48008843
:1018200040F480404949088002E000204749088090
:1018300046480088C0F30D001F2805D143480088A2
:1018400040F400404149088040480088C0F30D0042
:101850003F490C543D480088401C3C49088040F2F8
:101860002551374800F074FE10BD10B540F22551E7
:10187000354800F043FE70B3334800F0BFFDC4B2FA
:101880003448008800F4004000BB0D2C06D13148DC
:10189000008840F480402F4908800CE02D480088E3
:1018A00000F4804038B10A2C05D12A48008840F461
:1018B00000402849088027480088C0F30D002649C9
:1018C0000C5424480088401C2249088040F22551CD
:1018D0001D4800F03DFE10BD2DE9F04105460E46C5
:1018E0001746002428E0012D0AD1315D144800F08C
:1018F00081FD00BF4021124800F0EAFD0128F9D126
:10190000022D0AD1315D104800F074FD00BF402166
:101910000D4800F0DDFD0128F9D1032D0AD1315D1C
:101920000E4800F067FD00BF40210C4800F0D0FDDC
:101930000128F9D1601CC4B2BC42D4DBBDE8F081FF
:1019400000380140000801400044004064000020CD
:10195000D404002066000020D40500200048004088
:101960000948804709480047FEE7FEE7FEE7FEE733
:10197000FEE7FEE7FEE7FEE7FEE7FEE7044805496F
:10198000054A064B704700000303000831010008B8
:1019900038080020380E0020380A0020380A0020BD
:1019A00031490143314A1160704770B5002100236D
:1019B0000F22C47804B32D4C246804F4E064C4F509
:1019C000E064210AC1F10403CA40447804FA03F137
:1019D0008478144021430901254C0678A1550478E8
:1019E00004F01F050124AC4005786D11AD0005F130
:1019F000E025C5F8004109E0047804F01F05012442
:101A0000AC401C4D0678761145F8264070BD1A4A48
:101A10000A400243154B1B1F1A60704739B1134A25
:101A2000121D12680243114B1B1D1A6006E00F4A7B
:101A3000121D126882430D4B1B1D1A60704704284B
:101A400008D14FF0E021096941F004014FF0E02294
:101A5000116107E04FF0E021096921F004014FF026
:101A6000E0221161704700000000FA050CED00E073
:101A700000E400E080E100E080FFFF1F10B50446B5
:101A8000CC48844208D10121042000F02DFB002124
:101A9000042000F029FB46E0C748844208D1012118
:101AA000082000F021FB0021082000F01DFB3AE097
:101AB000C248844208D10121102000F015FB00210A
:101AC000102000F011FB2EE0BD48844208D1012116
:101AD000202000F009FB0021202000F005FB22E07F
:101AE000B848844208D10121402000F0FDFA0021CD
:101AF000402000F0F9FA16E0B348844208D10121F1
:101B0000802000F0F1FA0021802000F0EDFA0AE0D8
:101B1000AE48844207D10121801500F0E5FA00218A
:101B2000A01500F0E1FA10BD10B50121084600F043
:101B3000DBFA0021012000F0D7FA10BD2DE9F041B9
:101B4000024600250026002000230024002791F8EB
:101B500003C00CF00F0591F803C00CF0100CBCF1A1
:101B6000000F03D091F802C04CEA050591F800C0BF
:101B7000BCF1000F31D0146800202BE04FF0010CB5
:101B80000CFA00F3B1F800C00CEA03069E4220D123
:101B900083004FF00F0C0CFA03F7BC4305FA03FC6B
:101BA0004CEA040491F803C0BCF1280F06D14FF0B1
:101BB000010C0CFA00FCC2F814C00AE091F803C052
:101BC000BCF1480F05D14FF0010C0CFA00FCC2F833
:101BD00010C0401C0828D1D31460B1F800C0BCF17B
:101BE000FF0F34DD546800202EE000F1080C4FF0A8
:101BF000010808FA0CF3B1F800C00CEA03069E4293
:101C000021D183004FF00F0C0CFA03F7BC4305FA07
:101C100003FC4CEA040491F803C0BCF1280F05D181
:101C200000F1080C08FA0CF8C2F8148091F803C00F
:101C3000BCF1480F07D100F1080C4FF0010808FA79
:101C40000CF8C2F81080401C0828CED35460BDE8C0
:101C5000F0814FF6FF710180022181700421C17073
:101C600070470246002093680B400BB1012000E052
:101C7000002070470146886880B270470246002005
:101C8000D3680B400BB1012000E0002070470146F3
:101C9000C86880B2704701617047416170470AB1FE
:101CA000016100E041617047C16070474FF48032CC
:101CB0000A4382618161826182698269704702465A
:101CC0000020434B18684FF68073184040EA02101A
:101CD00008433F4B186070473E49C8617047F0B5F4
:101CE0000A46002300240021002500F00046B6F13A
:101CF000004F02D1364EF16901E0354E7168C0F3F4
:101D0000034583B200F44016B6F5401F08D121F018
:101D100070612F4E766826F070662D4F7E6012E05F
:101D200000F48016B6F5801F06D1032606FA05F4E6
:101D3000A14341F0706106E0460D360103FA06F654
:101D4000B14341F0706122B1460D360103FA06F647
:101D5000314300F00046B6F1004F02D11C4EF16154
:101D600001E01B4E7160F0BD30B500228B071C0FE7
:101D70000F2303FA04F2164B08338C1053F8243067
:101D80009343134C08348D1044F8253023468C10AF
:101D900053F824308C07240F00FA04F423430C4C2E
:101DA00008348D1044F8253030BD0A49DC31086014
:101DB0007047000000080140000C01400010014085
:101DC0000014014000180140001C014000200140A7
:101DD0000000014000002042DF48006840F00100A0
:101DE000DD49086008464068DC490840DA49486037
:101DF00008460068DA490840D74908600846006884
:101E000020F4802008600846406820F4FE00486006
:101E10004FF41F0088607047CF49096821F4803172
:101E2000CD4A11601146096821F480211160B0F596
:101E3000803F03D0B0F5802F0ED106E0C649096877
:101E400041F48031C44A116007E0C349096841F494
:101E5000A021C14A116000E000BF00BF704710B56B
:101E600001460022002300204A11012A02D1BA4C67
:101E7000236806E0022A02D1B74C236A01E0B64C7F
:101E8000636A01F01F02012494401C400CB1012040
:101E900000E0002010BD38B500200090002400258F
:101EA00000BF3120FFF7DBFF05460098401C009083
:101EB0000098B0F5A06F01D0002DF2D03120FFF7CF
:101EC000CEFF08B1012400E00024204638BD0146C1
:101ED0000020A14A106820F0F80040EAC10010601C
:101EE0007047A04908607047024600209A4B586826
:101EF00020F47C1042EA01031843974B5860704766
:101F000098490866704701460020934A506820F0BF
:101F100003000843506070478F48406800F00C0091
:101F20007047014600208C4A506820F0F0000843BA
:101F30005060704701460020874A506820F4E060F6
:101F400008435060704701460020834A506820F4DF
:101F5000605040EAC1005060704729B17E4A527A11
:101F600002437D4B5A7204E07B4A527A82437A4B99
:101F70005A7270477B49D83108607047014600208B
:101F8000754A506820F44040084350607047002173
:101F9000714A20321170704A82F82010012802D054
:101FA00004280AD104E001216B4A2032117005E0B7
:101FB0000521694A2032117000E000BF00BF704760
:101FC0006949086070476449096A0143624A1162BD
:101FD0007047654944390860704730B500210022D8
:101FE000002400235C4D6D6805F00C0121B104292B
:101FF00005D0082923D105E05C4D056022E05B4D4A
:1020000005601FE0544D6D6805F47012524D6D6807
:1020100005F48034022505EB92421CB9544D55431A
:1020200005600BE04C4D6D6805F400351DB1504D59
:102030005543056002E04D4D5543056002E04B4DB0
:10204000056000BF00BF444D6D6805F0F00109094F
:10205000484D6B5C0568DD4045603F4D6D6805F49B
:10206000E061090A434D6B5C4568DD4085603A4D8F
:102070006D6805F46051C90A3E4D6B5C4568DD40F2
:10208000C560354D6D6805F44041890B3A4D6B5C78
:10209000C568B5FBF3F5056130BD29B12E4A52691B
:1020A00002432D4B5A6104E02B4A526982432A4B6A
:1020B0005A61704729B1284A92690243264B9A61B6
:1020C00004E0254A92698243234B9A61704729B103
:1020D000214AD2690243204BDA6104E01E4AD269E8
:1020E00082431D4BDA61704729B11B4AD268024313
:1020F000194BDA6004E0184AD2688243164BDA6062
:10210000704729B1144A12690243134B1A6104E063
:10211000114A12698243104B1A61704712494039C3
:10212000086070470F49C86470470B49C871704711
:102130000948406A40F0807007494862704701468C
:102140000020054A92680A400AB1012000E0002000
:102150007047014988727047001002400000FFF884
:10216000FFFFF6FE000042428004424200127A0065
:1021700000093D006A0000207A00002010B50446E6
:10218000FB48844209D101218803FFF7ADFF0021FC
:102190004FF48040FFF7A8FF32E0F648844209D1AF
:1021A00001214804FFF7ADFF00214FF40030FFF795
:1021B000A8FF25E0F048844209D101218804FFF7F7
:1021C000A0FF00214FF48020FFF79BFF18E0EB48B1
:1021D000844209D10121C804FFF793FF00214FF485
:1021E0000020FFF78EFF0BE0E548844208D1012173
:1021F0000805FFF786FF00214FF48010FFF781FFED
:1022000010BD2DE9F04786B005460E460024A246D3
:1022100000BFA1460027B08900B100BF2F462C8A1D
:102220004CF6FF700440F08804432C82AC894EF6D3
:10223000F3100440B088318908437189084304438E
:10224000AC81AC8A4FF6FF400440B0890443AC82B5
:1022500001A8FFF7C2FEC648874202D1DDF810A0F0
:1022600001E0DDF80CA0A88900F4004040B10AEBC1
:10227000CA0000EB0A1031684900B0FBF1F807E032
:102280000AEBCA0000EB0A1031688900B0FBF1F8D4
:102290006420B8FBF0F004012009642101FB1089DF
:1022A000A88900F4004040B1322000EBC900B0FB27
:1022B000F1F000F00700044308E0322000EB0910C1
:1022C0006421B0FBF1F000F00F0004432C8106B054
:1022D000BDE8F0874FF41651016000218180C18074
:1022E00001810C21418100218181704710B5024696
:1022F0000020108A4FF2FF0318400B884C882343BC
:102300008C882343CC8823431843108210BD0021BE
:10231000018041808180C180704721B1828942F46F
:102320000052828104E082894DF6FF731A40828157
:102330007047F0B50346002400260025002040F633
:102340006A17B94200D100BF1846C1F3421401F028
:102350001F06012707FA06F5012C01D10C3004E015
:10236000022C01D1103000E014301AB107682F435D
:10237000076002E00768AF430760F0BD1AB1838AC7
:102380000B43838202E0838A8B4383827047028AF5
:102390004FF6F0731A400282028A0A4302827047A3
:1023A00082894FF2FF731A40828182890A438281B7
:1023B000704721B1828942F00202828104E0828961
:1023C0004FF6FD731A4082817047028A4FF6DF7321
:1023D0001A400282028A0A430282704721B1028AAD
:1023E00042F48042028204E0028A4BF6FF731A40F4
:1023F00002827047C1F308028280704701468888D4
:10240000C0F308007047818941F001018181704764
:10241000028BD2B20283028B42EA0122028370470E
:10242000028B02F47F420283028B0A4302837047CD
:1024300021B1828A42F02002828204E0828A4FF631
:10244000DF731A408282704721B1828A42F0100203
:10245000828204E0828A4FF6EF731A4082827047CC
:1024600021B1828A42F00802828204E0828A4FF619
:10247000F7731A408282704721B1828942F4004288
:10248000828103E08289C2F30E028281704721B10A
:10249000828A42F40062828204E0828A4FF2FF73F1
:1024A0001A4082827047828A4FF6FB731A408282FA
:1024B000828A0A438282704721B1828A42F00202F4
:1024C000828204E0828A4FF6FD731A40828270474E
:1024D00002460020B1F5007F00D100BF13880B40F9
:1024E0000BB1012000E00020704701F40072B2F54A
:1024F000007F00D100BFCA430280704770B502461A
:10250000002400230025002040F66A16B14200D1C5
:1025100000BFC1F3421501F01F03012606FA03F3C1
:10252000012D02D19689334006E0022D02D1168A90
:10253000334001E0968A33400C12012606FA04F477
:102540001688344013B10CB1012000E0002070BDAA
:1025500010B50022002340F66A14A14200D100BF4A
:102560000A1201249440A3B2DC43048010BD000091
:10257000003801400044004000480040004C00404A
:102580000050004001460020FE4A106800F038006C
:10259000084310607047FB49096821F00801F94AB7
:1025A000116011460968014311607047F5490968D7
:1025B00021F01001F34A11601146096801431160CE
:1025C0007047F148EF494860F04848607047EE486E
:1025D000EC494860ED4848607047EA48006940F0BF
:1025E0008000E84908617047E648006940F08000D3
:1025F000E449086170470420E249C96801F001011B
:1026000009B101200EE0DF49C96801F0040109B1F8
:10261000022007E0DB49C96801F0100109B103207D
:1026200000E00420704700B502460423FFF7E3FFF3
:10263000034603E0FFF7DFFF0346521E012B01D1E3
:10264000002AF7D102B90523184600BD30B504466B
:1026500004254FF43020FFF7E6FF0546042D17D17F
:10266000C848006940F00200C64908610846446154
:10267000006940F0400008614FF43020FFF7D3FFBD
:102680000546C048006941F6FD710840BD49086132
:10269000284630BD10B504244FF43020FFF7C3FFA7
:1026A0000446042C16D1B748006940F00400B5492F
:1026B00008610846006940F0400008614FF430208E
:1026C000FFF7B1FF0446AF48006941F6FB710840CF
:1026D000AC490861204610BD00B502460423FFF74F
:1026E0008AFF034603E0FFF786FF0346521E012BD5
:1026F00001D1002AF7D102B90523184600BD10B553
:1027000004244FF43020FFF7E7FF0446042C16D1D1
:102710009C48006940F004009A4908610846006935
:1027200040F0400008614FF43020FFF7D5FF044629
:102730009448006941F6FB710840924908612046BF
:1027400010BD00208F49C96901F0020109B10120C3
:1027500000E00020704730B5A5250424FFF7F1FF05
:1027600000B100254FF43020FFF75DFF0446042C34
:102770003AD1854883498860844888600846006962
:1027800040F0200008610846006940F04000086100
:102790004FF43020FFF747FF0446042C1BD1794843
:1027A000006941F6DF710840764908610846006912
:1027B00040F01000086176480580E002FFF733FF23
:1027C0000446052C10D06F48006941F6EF710840AF
:1027D0006C49086108E0052C06D06A48006941F69A
:1027E000EF71084067490861204630BD78B506465C
:1027F0000C46042500200090E802FFF714FF054670
:10280000042D24D15F48006940F001005D49086152
:102810003480E802FFF707FF0546042D10D1B01CF5
:102820000090200C00990880E802FFF7FCFE0546A6
:102830005448006941F6FE7108405249086106E0BB
:102840005048006941F6FE7108404E49086128462B
:1028500078BD70B504460D460426F002FFF7E3FE8E
:102860000646042E11D14748006940F00100454951
:1028700008612580F002FFF7D6FE06464148006950
:1028800041F6FE7108403F490861304670BD70B5A1
:1028900005460E460424E002FFF7C5FE0446042C5C
:1028A00017D1394837498860384888600846006938
:1028B00040F0100008612E80E002FFF7B4FE0446ED
:1028C000052C06D02F48006941F6EF7108402D49CC
:1028D0000861204670BD2DE9F04304464FF6FF76AF
:1028E0003746B046B1460425E443E6B2C4F30727B1
:1028F000C4F307484FEA1469E802FFF794FE05465F
:10290000042D49D120481F49886020488860084626
:10291000006940F010000861FF2E06D01C48083006
:102920000680E802FFF77FFE0546042D08D1FF2F41
:1029300006D017480A300780E802FFF774FE054604
:10294000042D0AD1B8F1FF0F07D011480C30A0F8C0
:102950000080E802FFF767FE0546042D0AD1B9F1B1
:10296000FF0F07D00A480E30A0F80090E802FFF7EA
:102970005AFE0546052D0FD00248006941F6EF7159
:10298000084007E00020024023016745AB89EFCDF6
:1029900000F8FF1F664908612846BDE8F08330B59E
:1029A000054604244FF43020FFF73DFE0446042C76
:1029B00041D160485E4988605F4888600846006988
:1029C00040F0200008610846006940F040000861BE
:1029D0004FF43020FFF727FE0446042C22D1544840
:1029E000006941F6DF7108405149086108460069F5
:1029F00040F0100008611DB100205049088002E03D
:102A0000A5204E4908804FF43020FFF70CFE044605
:102A1000052C10D04648006941F6EF710840444942
:102A2000086108E0052C06D04148006941F6DF71D5
:102A300008403F490861204630BDF0B505460E46C6
:102A4000174604243B483A4988603B488860E002C6
:102A5000FFF7E9FD0446042C19D13548006940F020
:102A600010003349086147F0F800304328433349E8
:102A7000891C0880E002FFF7D6FD0446052C06D02D
:102A80002B48006941F6EF7108402949086120464A
:102A9000F0BD2748C069800870472548006A704724
:102AA00000202349096801F0200109B1012000E05C
:102AB0000020704729B11E4A126902431C4B1A615B
:102AC00004E01B4A12698243194B1A6170470146A0
:102AD0000020012908D1164AD26902F001020AB188
:102AE000012008E0002006E0114AD2680A400AB13D
:102AF000012000E0002070470D49C86070470420A5
:102B00000B49C96801F0010109B101200EE0084933
:102B1000C96801F0040109B1022007E00449C9684D
:102B200001F0100109B1032000E00420704700000B
:102B30000020024023016745AB89EFCD00F8FF1F5D
:102B400010B50446FE48844208D10121C014FFF7A5
:102B5000CBFA0021E014FFF7C7FAC4E0B4F1804FCC
:102B600008D101210846FFF7CCFA00210120FFF728
:102B7000C8FAB8E0F348844208D101210220FFF7E7
:102B8000C0FA00210220FFF7BCFAACE0EE48844214
:102B900008D101210420FFF7B4FA00210420FFF737
:102BA000B0FAA0E0E948844208D101210820FFF7EB
:102BB000A8FA00210820FFF7A4FA94E0E448844230
:102BC00008D101211020FFF79CFA00211020FFF707
:102BD00098FA88E0DF48844208D101212020FFF7DD
:102BE00090FA00212020FFF78CFA7CE0DA4884423A
:102BF00008D101214014FFF777FA00216014FFF794
:102C000073FA70E0D548844209D10121C804FFF766
:102C10006BFA00214FF40020FFF766FA63E0D0481A
:102C2000844209D101210805FFF75EFA00214FF423
:102C30008010FFF759FA56E0CA48844209D10121B1
:102C40004805FFF751FA00214FF40010FFF74CFA46
:102C500049E0C548844208D101214020FFF751FADC
:102C600000214020FFF74DFA3DE0C048844208D1E2
:102C700001218020FFF745FA00218020FFF741FA6B
:102C800031E0BB48844208D101218015FFF739FAB1
:102C90000021A015FFF735FA25E0B648844209D196
:102CA00001210804FFF720FA00214FF48030FFF7DC
:102CB0001BFA18E0B048844209D101214804FFF70B
:102CC00013FA00214FF40030FFF70EFA0BE0AB4887
:102CD000844208D101218804FFF706FA00214FF44D
:102CE0008020FFF701FA10BD00220288944B984221
:102CF0000ED0994B98420BD0B0F1804F08D0914B39
:102D0000984205D0904B984202D0904B984204D103
:102D10004FF68F731A404B881A438D4B984207D059
:102D20008C4B984204D04FF6FF431A40CB881A438D
:102D300002808B8883850B880385814B98420BD05A
:102D4000854B984208D08B4B984205D08A4B9842CD
:102D500002D08A4B984201D10B7A038601238382E9
:102D6000704770B5002400220023058C4FF6FE76D4
:102D700035400584028C8388048B4FF68F752C4078
:102D8000B51E2C400D882C43751E2A400D892A4300
:102D90004D882A436A4DA8420BD06F4DA84208D0F7
:102DA000744DA84205D0744DA84202D0734DA8427C
:102DB00013D14FF6F7752A404D892A434FF6FB751C
:102DC0002A408D882A434FF6FF652B404FF6FF556A
:102DD0002B408D892B43CD892B4383800483CD8861
:102DE0008586028470BD70B5002400220023058C06
:102DF0004FF6EF7635400584028C8388048B48F6C5
:102E0000FF752C404FF6FF452C400D884FF6FF769E
:102E100006EA05252C434FF6DF752A400D8906EAA0
:102E200005152A434D8806EA05152A43444DA84254
:102E300002D0494DA8421DD14FF67F752A404D89D9
:102E40004FF6FF7606EA05152A434FF6BF752A406E
:102E50008D8806EA05152A434FF6FF352B404FF2C1
:102E6000FF752B408D8906EA85052B43CD8906EA3F
:102E700085052B4383800483CD880587028470BD3C
:102E800070B5002400220023058C4FF6FF66354004
:102E90000584028C8388848B4FF68F752C404FF607
:102EA000FC752C400D882C434FF6FF552A400D89A8
:102EB0004FF6FF7606EA05252A434D8806EA0525E2
:102EC0002A431F4DA84202D0234DA8421DD14FF2E4
:102ED000FF752A404D894FF6FF7606EA05252A43FD
:102EE0004FF6FF352A408D8806EA05252A434EF61F
:102EF000FF752B404DF6FF752B408D8906EA0515B1
:102F00002B43CD8906EA05152B4383808483CD8826
:102F10008587028470BD70B5002200230024058CD3
:102F20004EF6FF7635400584038C8488828B48F604
:102F3000FF752A404FF6FF452A400D8820E000002B
:102F4000002C01400004004000080040000C00403C
:102F5000001000400014004000340140004C0140CB
:102F6000005001400054014000180040001C004087
:102F70000020004000400140004401400048014062
:102F80004FF6FF7606EA05252A434DF6FF752B40DE
:102F90000D8906EA05352B434D8806EA05352B4396
:102FA000FA4DA84202D0FA4DA84208D14BF6FF755F
:102FB0002C408D894FF6FF7606EA85152C438480D8
:102FC0008283CD88A0F84050038470BD828B4FF27D
:102FD000FF331A408283828B4FF6FF7303EA01238B
:102FE0001A4382837047F0B50C4615460022002133
:102FF0000026078C4EF6FF7C07EA0C070784828BBD
:10300000018C4FF6FF7707EA043640F6FF473A4057
:103010004FF6FF7707EA05273A434FF6FF7707EAAF
:1030200003373A43D94FB8420ED0D94FB8420BD0EC
:10303000B0F1804F08D0D74FB84205D0D64FB84234
:1030400002D0D64FB84206D14DF6FF77394046F44C
:103050008057394305E047F6FF57394044F480571D
:10306000394382830184F0BD828B4FF6F3731A409B
:103070008283828B0A4382837047F0B50C461546E3
:10308000002200210026078C4FF6FF6C07EA0C0790
:103090000784828B018C4FF6FF7707EA04264FF6F0
:1030A0000C773A404FF6FF7707EA03172F433A436E
:1030B000B64FB8420ED0B64FB8420BD0B0F1804FE9
:1030C00008D0B44FB84205D0B34FB84202D0B34F86
:1030D000B84206D14FF6FF57394046F4807739435E
:1030E00005E04FF2FF57394044F48077394382833B
:1030F0000184F0BD028B4FF2FF331A400283028B32
:103100004FF6FF7303EA01231A4302837047F0B5B9
:103110000C461546002200210026078C4FF6EF7C56
:1031200007EA0C070784028B018C4FF6FF7707EA4A
:10313000041640F6FF473A404FF6FF7707EA033799
:103140003A434FF6FF7707EA05273A438F4FB842D5
:103150000ED08F4FB8420BD0B0F1804F08D08D4FBA
:10316000B84205D08C4FB84202D08C4FB84206D13D
:103170004FF6DF77394046F01007394305E04FF648
:103180005F77394044F01007394302830184F0BD72
:10319000028B4FF6F3731A400283028B0A430283B9
:1031A0007047F0B50C46154600220021068C4FF6FC
:1031B000FE773E400684028B018C4FF60C7632403F
:1031C0007E1C06EA03162E433243704EB0420ED0E8
:1031D0006F4EB0420BD0B0F1804F08D06D4EB04270
:1031E00005D06D4EB04202D06C4EB04206D14FF6C3
:1031F000FD76314044F00106314305E04FF6F576A7
:10320000314044F00106314302830184F0BD70B5C2
:1032100005460C465D4885420ED05D4885420BD080
:10322000B5F1804F08D05B48854205D05A488542A9
:1032300002D05A48854200D100E000BF208850B932
:103240002389A28861882846FFF7ABFFE1882846DA
:10325000FFF79EFF25E0208804280AD12389A28851
:1032600061882846FFF753FFE1882846FFF742FFB1
:1032700017E0208808280AD12389A2886188284677
:10328000FFF7FBFEE1882846FFF7EEFE09E0238901
:10329000A28861882846FFF7A6FEE1882846FFF746
:1032A00095FE70BD2DE9F04105460C46002601272C
:1032B000608808B9022600E00026A088012801D114
:1032C000022700E001272088A0B92389A28861880D
:1032D0002846FFF766FFE1882846FFF759FF238954
:1032E0003A4631462846FFF712FFE1882846FFF7A5
:1032F00001FF13E02389A28861882846FFF707FFB2
:10330000E1882846FFF7F6FE23893A4631462846EB
:10331000FFF747FFE1882846FFF73AFFBDE8F08155
:103320000A884B881A438B881A43CB881A430B8927
:103330001A434B891A438B891A43A0F844207047DB
:103340004FF6FF71818000210180C18041800172B0
:1033500070470021018041808180C18001814181CD
:103360008181C181704700210180418001218180DC
:103370000021C1800181704700210180418081804E
:10338000C18001814181818170470000002C014092
:10339000003401400004004000080040000C0040E0
:1033A00021B1028842F00102028004E002884FF657
:1033B000FE731A400280704731B1B0F8442042F4E5
:1033C0000042A0F8442005E0B0F84420C2F30E0209
:1033D000A0F8442070471AB183890B43838102E02F
:1033E00083898B43838170478182704741EA02035E
:1033F000A0F8483070471AB183890B43838102E0FB
:1034000083898B438381704701894FF6F87211409D
:10341000018170470A46002101894FF68F731940D8
:1034200011430181704730B504460D4629462046B8
:10343000FFF7F0FF208940F00700208130BD2DE923
:10344000F04104460D4616461F46602D06D13B4608
:10345000012231462046FFF75AFE05E03B46012295
:1034600031462046FFF79DFE29462046FFF7D2FF52
:10347000208940F007002081BDE8F08130B50C467E
:1034800000210189C9B24FF6FF7505EA03251543EE
:1034900025432943018130BD2DE9F04105460E4603
:1034A00017469846002443463A4631462846FFF7D9
:1034B000E5FF2C894FF6F870044044F007044FF6FE
:1034C0008F70044044F070042C81BDE8F081F0B5A9
:1034D00004460D4616461F463B46324629462046C0
:1034E000FFF7CCFF208940F480402081F0BD0185AA
:1034F000828270470A46002101884FF68F73194077
:10350000114301807047F0B50C4615461E46002158
:10351000002200230189028B038C4FF6F877394093
:1035200021434FF6FC473A4040F201173A434FF629
:10353000DD773B404FF6FF7707EA06172F433B4303
:10354000018102830384F0BD0A460021018B4FF6FE
:103550008F7319401143018370470A460021018B84
:1035600048F6FF7319404FF6FF7303EA022319432D
:10357000018370470A460021818B4FF68F731940F3
:103580001143818370470A460021818B48F6FF73FF
:1035900019404FF6FF7303EA0223194381837047F2
:1035A00021B1028842F08002028004E002884FF6D6
:1035B0007F731A400280704721B1828842F0040272
:1035C000828004E082884FF6FB731A408280704745
:1035D00021B1828842F00802828004E082884FF69E
:1035E000F7731A408280704721B1828842F001024D
:1035F000828004E082884FF6FE731A408280704712
:103600000A460021018B4FF6F773194011430183DD
:1036100070470A460021018B4FF2FF7319404FF6A5
:10362000FF7303EA02231943018370470A4600210E
:10363000818B4FF6F77319401143818370470A4617
:103640000021818B4FF2FF7319404FF6FF7303EA9D
:1036500002231943818370470A460021018B4FF6EC
:10366000FB7319401143018370470A460021018B07
:103670004FF6FF3319404FF6FF7303EA0223194355
:10368000018370470A460021818B4FF6FB73194076
:103690001143818370470A460021818B4FF6FF3327
:1036A00019404FF6FF7303EA0223194381837047E1
:1036B0000A460021018B4FF67F73194011430183A5
:1036C00070470A460021018BC1F30E014FF6FF73CC
:1036D00003EA02231943018370470A460021818BC4
:1036E0004FF67F7319401143818370470A460021CA
:1036F000818BC1F30E014FF6FF7303EA02231943D6
:10370000818370470A460021018C4FF6FD731940F2
:103710001143018470470A460021018C4FF6F7736C
:1037200019401143018470470A460021018C4FF66D
:10373000DF7319404FF6FF7303EA02131943018444
:1037400070470A460021018C4FF67F7319404FF6EF
:10375000FF7303EA02131943018470470A460021EC
:10376000018C4FF6FF5319404FF6FF7303EA022313
:103770001943018470470A460021018C4FF2FF7300
:1037800019404FF6FF7303EA02231943018470477F
:103790000A460021018C4DF6FF7319404FF6FF7366
:1037A00003EA023319430184704730B50023012432
:1037B0008C40A3B2048C9C430484048C02FA01F56F
:1037C000ADB22C43048430BD30B5002304248C40BA
:1037D000A3B2048C9C430484048C02FA01F5ADB2BC
:1037E0002C43048430BD70B50346002000241846E5
:1037F000183001258D40ACB21D8CA5431D8409B144
:10380000082909D100EB6100056825F07005056005
:103810000568154305600EE00D1FC5F34E052844ED
:10382000056825F4E045056005684FF6FF7606EA71
:1038300002263543056070BD21B1028842F00202C4
:10384000028004E002884FF6FD731A400280704740
:1038500021B1028842F00402028004E002884FF69F
:10386000FB731A400280704721B1828842F08002C7
:10387000828004E082884FF67F731A40828070470E
:1038800002884FF6F7731A40028002880A430280CA
:10389000704782884FF68F731A40828082880A436D
:1038A0008280704702894FF6F8731A4002810289BC
:1038B0000A430281704702894FF67F731A400281E2
:1038C00002890A430281704781847047818570476D
:1038D000818670470187704781877047A0F8401044
:1038E000704702884FF6FF431A40028002880A435D
:1038F000028070470146888E70470146088F7047E6
:103900000146888F70470146B1F840007047014674
:10391000888C70470146088D704702460020138A44
:103920000B400BB1012000E000207047CA43028227
:10393000704730B50246002000230024158A05EAAE
:103940000103958905EA010413B10CB1012000E0DF
:10395000002030BDCA430282704700000E49086053
:1039600070470D49486070470B49886070474AF6B8
:10397000AA200949086070474CF6CC400649086007
:10398000704701460020044AD2680A400AB101206B
:1039900000E0002070470000003000400020444953
:1039A0000860091D0860091D0860091D086041487C
:1039B0003F4914310860704700213D498279002A4F
:1039C0003AD00A46126803689A430B461A600A1DE9
:1039D000126803689A430B1D1A60027911440A6841
:1039E00003681A430A60324A0832126803689A432D
:1039F0002F4B08331A601A1D126803689A432C4B28
:103A00000C331A604279102A0ED11A1F126803680B
:103A10001A43274B08331A601A1D126803681A43A9
:103A2000234B0C331A600DE02149427911440A6896
:103A300003681A430A6005E0027911440A680368C2
:103A40009A430A6070470021016001710C214171A5
:103A50000021817170471649103109680143144AE9
:103A600010321160704701460020114A143212686A
:103A70000A400AB1012000E0002070470C491431CF
:103A800008607047014600200022094B1B6803EACA
:103A90000102074B14331B680B4013B10AB101201C
:103AA00000E00020704702491431086070470000B0
:103AB00000040140FFFF0F0070B503460C4603E011
:103AC00014F8015B03F8015B1500A2F10102F7D1C4
:103AD00070BD30B5034601E003F8011B1400A2F1EC
:103AE0000102F9D130BD70B504460D461646324686
:103AF0002946204600F002F870BD704740EA0103F5
:103B000010B59B070FD1042A0DD310C808C9121F86
:103B10009C42F8D020BA19BA884201D9012010BDC0
:103B20004FF0FF3010BD1AB1D30703D0521C07E08D
:103B3000002010BD10F8013B11F8014B1B1B07D1F1
:103B400010F8013B11F8014B1B1B01D1921EF1D162
:103B5000184610BD7047704770477047754600F0B3
:103B600029F8AE4605006946534620F00700854611
:103B700018B020B5FDF702FFBDE820404FF0000669
:103B80004FF000074FF000084FF0000B21F0070145
:103B9000AC46ACE8C009ACE8C009ACE8C009ACE888
:103BA000C0098D4670470446AFF300802046FCF7FD
:103BB00006FB000000487047D407002090EA010F80
:103BC00048BF81F0004100F14082421A3CBF801A98
:103BD00089184FEAD0524FF07F4C1CEA410FA2EBFC
:103BE000D15318BF9CEA026F00F03B804FF0004CAD
:103BF0004CEA00204CEA012121FA03FC10EB0C0CEA
:103C00001ED202F1FF325FEA1C2040EBC25038BFE7
:103C100070471CF07F0F4FEA400C18BFBCF17F4F7C
:103C200038BF7047C3F12003994008BF20F001005E
:103C3000BCF17F4F38BF7047A0F1C04000F0F9B928
:103C40004FEA3C00000A40EBC25028BF1CF0FF0FB7
:103C50004FEA400CE6D018BFBCF17F4F38BF704729
:103C6000EAE79CEA026F05D010EA5C0F08BF00F09B
:103C70000040704710B500F096F900BF64FBBE3EEF
:103C80004FF47F0C1CEAD0121EBF1CEAD11392EA3B
:103C90000C0F93EA0C0F00F0858090EA010F48BFEB
:103CA00042F4807240F4000C41F400002CF07F419B
:103CB00020F07F4000B58142A2EB03020FF2081C06
:103CC000ACEB504EC0F100009EF800E04FEA4E0E03
:103CD00000FB0EFC38BF49004FEA2C1C02F5FA022B
:103CE0000CFB0EF34FEACE1E4FEA112C4FEAC12116
:103CF0000EEB635E42EB22420EFB0CFC4FEA1C53C0
:103D000000FB03114FEA112C4FEA01310EFB0CFCB2
:103D10004FEADC4C00FB0C11C14228BF09184CEBE8
:103D200003335DF804EB10EB410143EBC250B2F5F5
:103D30007C0F38BF704729D512F0F00F1CBF00F17F
:103D4000C04000F0004070470081828384858687F0
:103D500088898B8C8D8E8F919293959697999A9C4A
:103D60009D9FA0A2A3A5A7A8AAACAEB0B2B3B5B7B9
:103D7000B9BCBEC0C2C5C7C9CCCED1D4D7D9DCDF8F
:103D8000E2E6E9ECF0F3F7FAFE0000004FEA400C3F
:103D90000CF1807CBCF17E4F28BF7047B0F1C04071
:103DA00000F047B990EA010F0CEAD11348BF42F482
:103DB0008072624538BF634507D213F47F0F16D077
:103DC00080EA010000F00040704710B500F0EBF809
:103DD000097EFC3E00F005B880EA010000F00040DA
:103DE000704780EA010000F0004000F022B912F4B0
:103DF0007F0F04BF0248704780EA010000F019B944
:103E00000000C07F41000B0ED3F19E0208D950F490
:103E100000034FEA032323FA02F048BF40427047F1
:103E200010B500F0C0F800BF499224800020704710
:103E30006FF0004282EA200070470000C10DD1F10E
:103E40009E0206DB4FEA002343F0004323FA02F010
:103E50007047004207D54FEA4001B1F1FE4F02D250
:103E60004FF00000704710B500F09DF84992248093
:103E7000002070476FEA200070470000B0FA80F31E
:103E800010FA03F2C3F19D030AD0D90501EB122009
:103E9000530638BF704700F1010008BF20F0010051
:103EA000704700004FF47F0C1CEAD0121EBF1CEAC2
:103EB000D11392EA0C0F93EA0C0F00F0478090EABE
:103EC000010F48BF42F480724FF0004C4CEA0020D2
:103ED0004CEA012102EB0302A0FB0113A2F5000250
:103EE000002918BF43F001035B0028BF4FEA3303EA
:103EF00042EB22425FEA132C4CEBC2502EBFBCEBCC
:103F0000436FB2F57C0F70474FEA036CBCF1004F72
:103F100008BF20F00100B2F57C0F38BF70470BD509
:103F200082F0FF0212F5803FC8BF704700F1C04029
:103F3000D8BF00F00040704700F5000C5FEA4C0C61
:103F400048BF7047B0F1C04000F073B890EA010F6D
:103F50000CEAD11348BF42F48072624538BF634512
:103F600004D280EA010000F00040704710B500F074
:103F70001AF800BF8900013E00F007B800F009B848
:103F80005FEA410C5FEA1C6C08D080EA010000F097
:103F900050B85FEA400C5FEA1C6CF6D14FF000406D
:103FA000A0F5800070470EF1020E2EF0030E5EF8B1
:103FB000044B244204D44FEA4102B2F17F4F11D89E
:103FC0004FEA4003B3F17F4F0CD80ED14FEAD07CBB
:103FD000B2F17F4F0CEB4C0C0CF1020C08BF4CEB18
:103FE000D17C04E04FF0080C01E04FEAD17C0CEBEF
:103FF0004C0324FA03F404F00704B4F1040C06D2D1
:104000000EEB840CBDE810404CF0010C6047DFE87B
:104010000CF0070802024FF00040A0F5800010BD30
:104020000846420018BFD2F1807288BF00F00040FD
:1040300010BDFF2141EAD050C005704790EA010F42
:1040400048BF81F000413FF5C0AD421A04D882F06C
:104050000042A0EB020011444FEAD0524FF07F4CD7
:104060001CEA410FA2EBD15318BF9CEA026F4AD061
:104070004FF0004C4CEA00204CEA012121FA03FCED
:10408000B0EB0C0C0FD412F0FE0F36D05FEA4C00F0
:104090001DD5001240EBC25038BF70471CF03F0FD7
:1040A00018BF70470BE0A2F101025FEA1C2040EB51
:1040B000C25038BF70471CF07F0F18BF7047C3F164
:1040C0002003994014BF401E20F001007047800873
:1040D0004FEA122308BF7047B0FA80FCA2EB0C0233
:1040E000CCF1280C60FA0CF093EA122F04BF00EB1D
:1040F000C25070474FEAC3707047130A5FEADC1082
:1041000008BF7047F6E79CEA026F04D010EA5C0F24
:1041100008BF0020704710B5FFF745FF40DFF63EAF
:1041200081F0004070470000484100080000002076
:10413000800000006C010008C841000880000020D9
:10414000B80D00008801000800A24A040000000029
:10415000000000000102030406070809EB900014A8
:10416000000000000000000000000100000100004D
:104170001E0D0AEB90000B0F00000000001A0D0A44
:10418000000B001D0100280E0028000000000000A8
:10419000000000000100000000000000000000001E
:1041A000000000000000000000000000000000000F
:1041B00000000000000001020304010203040607DE
:0841C0000809020406080000D2
:0400000508000131BD
:00000001FF
